:020000040800F2
:1000000078070020A5020008F91E0008711C0008EE
:10001000F51E00089D040008C1280008000000002B
:10002000000000000000000000000000011F0008A8
:10003000A104000800000000FD1E0008051F0008C4
:10004000BF020008BF020008BF020008BF0200088C
:10005000BF020008BF020008BF020008BF0200087C
:10006000BF020008AD040008B5040008BF02000884
:10007000BF020008BF020008BF020008BF0200085C
:10008000BF020008BF020008BF020008BF0200084C
:10009000BF020008BF020008BF020008BD0400083C
:1000A000BF0200081D1F0008BF020008BF020008B1
:1000B000BF020008BF020008BF020008BF0200081C
:1000C000BF020008BF020008BF020008BF0200080C
:1000D000BF020008BF020008BF020008BF020008FC
:1000E000A5040008BF020008BF020008BF02000804
:1000F000BF020008BF020008BF020008BF020008DC
:10010000BF020008BF020008BF020008BF020008CB
:10011000BF020008BF020008BF020008BF020008BB
:10012000BF020008BF020008BF020008BF020008AB
:10013000BF020008BF020008BF020008BF0200089B
:10014000BF020008BF020008BF020008BF0200088B
:10015000BF020008BF020008BF020008BF0200087B
:10016000BF020008BF020008BF020008BF0200086B
:10017000BF020008BF020008BF020008BF0200085B
:10018000BF020008BF020008BF020008BF0200084B
:10019000BF02000800000000BF020008BF02000804
:1001A000BF020008BF020008BF020008BF0200082B
:1001B000BF020008BF020008BF020008BF0200081B
:1001C000BF020008BF020008BF020008BF0200080B
:1001D000BF020008BF02000800F002F800F052F869
:1001E00014A696E8000CB244B344DA4501D100F0FD
:1001F00049F8BAE80F000FA696E83000A5EB040511
:1002000004EB0607AAEB0704A7F101074FEA15154F
:100210004FEA3414A4F10104AC4201D300F032F8E7
:1002200013F0010F18BFFB1A43F0010300F001F8AF
:10023000DBE71847DC280000FC280000103A24BF48
:1002400078C878C1FAD8520724BF30C830C144BF3B
:1002500004680C6070470000704700000023002411
:1002600000250026103A28BF78C1FBD8520728BFC6
:1002700030C148BF0B6070471FB502F013FC1FBDB3
:1002800010B510BD00F0D0F81146FFF7F5FF02F0F1
:1002900067FB00F0EEF803B4FFF7F2FF03BC00F0D9
:1002A000F5F800000948804709480047FEE7FEE7E7
:1002B000FEE7FEE7FEE7FEE7FEE7FEE7FEE7FEE716
:1002C00004480549054A064B70470000091F00080D
:1002D000D901000878010020780700207803002069
:1002E0007803002053EA020C00F069802DE9F04BFE
:1002F0004FF00006002B1FBFB3FA83F503FA05F495
:1003000024FA05F65E4012BF1643B2FA82F502FAED
:1003100005F4C5F120051EBF22FA05FC44EA0C04D1
:10032000203556EA044C4FEA144418BF641C4FF0C1
:1003300000084FF00009904271EB030C39D30029FB
:1003400019BFB1FA81F701FA07F6B0FA80F700FA9F
:1003500007F6C7F120071EBF20FA07FC46EA0C0685
:100360002037B6FBF4FCA7EB0507103F07F01F0B87
:10037000CBF120062CFA06F60CFA0BFB44BFB34671
:100380000026202FA4BF5E464FF0000B5BEA060C50
:1003900008BF4FF0010B19EB0B0948EB0608ABFB4C
:1003A000027C06FB02CC0BFB03CCC01B71EB0C01E7
:1003B000C1E70B46024641464846BDE8F08B13B5FF
:1003C000084318BF4FF0FF300146AFF30080BDE88F
:1003D0001C4070474FF0000200B513469446964605
:1003E000203922BFA0E80C50A0E80C50B1F1200148
:1003F000BFF4F7AF090728BFA0E80C5048BF0CC0F6
:100400005DF804EB890028BF40F8042B08BF704753
:1004100048BF20F8022B11F0804F18BF00F8012BC5
:100420007047704770477047754600F02BF8AE462E
:1004300005006946534620F00700854618B020B5F0
:10044000FFF73EFFBDE820404FF000064FF00007E9
:100450004FF000084FF0000BAC46ACE8C009ACE828
:10046000C009ACE8C009ACE8C00921F007018D461D
:10047000704710B50446AFF300802046BDE8104039
:10048000FFF709BF004870471800002001491820F5
:10049000ABBEFEE72600020070470000FEE700004A
:1004A000704700004FF4005000F0E6B8082000F05C
:1004B000E3B80000102000F0DFB8000080B5202075
:1004C00000F0DAF8402000F0D7F88020BDE8804046
:1004D00000F0D2B8EFF3108072B600BFFEE7000064
:1004E00010B51F2826DD202850D0402874D0802841
:1004F00018BF10BD40F20000C2F200004FF46B5173
:10050000418040F27801C2F200010B220A611621FB
:10051000C0E901124FF090408021002200F096F9CE
:1005200040F20044C4F6000420464FF4006101226A
:1005300025E000BF082861D0102840F09B8040F2E1
:100540000000C2F200004FF46B51418040F278018C
:10055000C2F200014FF416620A614FF49651C0E9ED
:1005600001124FF090408021012200F06FF940F21B
:100570000044C4F6000420464FF40061002200F05D
:1005800065F904F500600421012261E040F20000F9
:10059000C2F200004FF46B7141804FF09040802117
:1005A000012200F053F940F20044C4F60004204652
:1005B0004FF40061012200F049F94FF090404FF4F0
:1005C0008061002200F042F920464FF400710122C0
:1005D000BDE8104000F03AB940F20000C2F200005D
:1005E00042684FF46B5141805108416040F2004035
:1005F000C4F600004FF4007100222FE040F27802B0
:10060000C2F2000240F200001369C2F200004FF48F
:100610006B5141805908D0E90134116161085B08D0
:10062000C0E90131002050704FF09040802101223C
:1006300000F00CF940F20044C4F6000420464FF4E8
:100640000061012200F002F904F50060042100229B
:1006500000F0FCF820464FF40071012200F0F6F89B
:100660004FF090404FF480610122BDE8104000F04F
:10067000EDB800BF10BD000040F21441C4F201010A
:100680000A68024214BF08607047FFF729BF0000E4
:100690002DE9F04F82B00D68002D00F0C58000F10B
:1006A0003847860546EA972741F20046C4F6000619
:1006B000062240F2004EB04208BF0522C4F2010EED
:1006C000052F38BF3A464FF0000C012400270026C2
:1006D000009209E00D68013635FA06F207F10207CB
:1006E0000CF1040C00F0A08004FA06FB15EA0B08DC
:1006F000F0D0D1F804A003230AF003056A1EBB4022
:10070000012A6FEA03090FD88268CB6802EA09025E
:10071000BB401A4382604268CAF3001322EA0B020C
:10072000B3401A43426003E0032D01D103251FE0CB
:10073000C2688B6802EA0902BB401A43022DC260FC
:1007400016D16FF0030202EA560202440CF01C05B7
:100750000F23D2F820A003FA05FB0B692AEA0B0A43
:10076000AB4043EA0A031362D1F804A00AF0030580
:10077000026805FA07F302EA09021A431AF4403F35
:100780000260A7D041F26003C4F202031A684FF678
:10079000084A42F001021A601A68CFF6FF7A02F0A6
:1007A00001020192019A26F00302724452F80A9063
:1007B0000CF00C050F23009CAB4029EA030304FA5C
:1007C00005F52B4342F80A30DEF808204B6842EA70
:1007D000080540F20C49DC0258BF22EA0805CEF8B1
:1007E0000850C4F20109D9F800209D0242EA080429
:1007F00058BF22EA0804C9F80040DEF804209D032F
:1008000042EA080458BF22EA0804CEF80440DEF8A1
:100810000020DB0342EA080458BF22EA0804CEF8AD
:100820000040012456E700BF02B0BDE8F08F000091
:100830000069084018BF012070470000426902EAC1
:100840000103914341EA0341816170471823002A63
:1008500008BF2823C150704740F27010C2F2000058
:100860000068704740F20C0040F27011C2F20000C4
:10087000C2F2000140680A68104408607047000036
:1008800080B5032000F08AF8002000F009F8002865
:100890001CBF012080BD00F029F8002080BD0000B1
:1008A00070B540F20C06C2F200067168E1B1044670
:1008B00040F21400C2F200004FF47A720068B2FBFA
:1008C000F1F1B0FBF1F000F0E1FE0F2C4FF001056B
:1008D00008D838B94FF0FF3021460022002500F03B
:1008E00031F83460284670BD012070BD82B041F2FD
:1008F0005800C4F20200816841F001018160816802
:1009000001F0010101910199016841F080510160FC
:10091000006800F080500090009802B000F0E2B84B
:10092000002848BF704700F01F01012202FA01F1C0
:100930001C2202EAD0004EF20012CEF200028150D8
:100940007047000010B54EF60C5CCEF2000CDCF8DF
:100950000030C3F3022E8EF00704042C28BF0424B9
:10096000BEF103034FF0FF3E0EFA04F438BF00233C
:10097000A14399400EFA03F39A43114300F00F028A
:1009800000F160430901043A03F56443624400281E
:1009900048BF02F10C03197010BD00004EF60C5157
:1009A000CEF200010A684FF6FF031A4060F30A22F4
:1009B00042F0806040F0FD7008607047B0F5007F45
:1009C00042D0002840F0808047F21400C4F20000BA
:1009D00050F8141CC26E01F4C06122F48072B1F5AB
:1009E000806FC2662ED150F8141C012262F34A2196
:1009F00040F8141C40F21401C2F2000109683222CE
:100A000051434DF68362C4F21B32A1FB0212910CDA
:100A10000268520511D54A1C0FD0026852050CD548
:100A200059B10268520508D5012906D0026852055D
:100A300003D50229A1F10401EAD10068400544BFB1
:100A4000032070470020704747F21400C4F20000F2
:100A500050F8141CC26E01F4C06142F48072B1F50A
:100A6000806FC266EED150F8141C012262F34A2155
:100A700040F8141C40F21401C2F20001096832224D
:100A800051434DF68362C4F21B32A1FB0212910C5A
:100A90000268520511D54A1C0FD0026852050CD5C8
:100AA00059B10268520508D5012906D002685205DD
:100AB00003D50229A1F10401EAD10068400544BF31
:100AC00003207047BEE700BF47F21400C4F20000E5
:100AD00050F8141C022262F34A2140F8141C002032
:100AE0007047000047F20800C4F20000016841F4BA
:100AF00080410160704700002DE9F04182B004465A
:100B0000807841F288060007C4F2020602D4002071
:100B10002FE000BF56F8300C5FEAC0080BD456F83F
:100B2000300C40F0805046F8300C56F8300C00F095
:100B300080500190019847F20007C4F2000738681E
:100B400040F480703860FFF787FE05463868C005BE
:100B500000F10C81FFF780FE401B0228F6D903202C
:100B6000B8F1000F05D456F8301C21F0805146F83A
:100B7000301C2168CA0717D18A071DD44A0723D41D
:100B80000A0729D4CA062FD48A0635D44A063BD48C
:100B90000A0641D4CA0547D48A034DD48A0553D4E2
:100BA0004A0559D467E000BF3268636822F0030247
:100BB0001A4332608A07E1D53268A36822F00C023A
:100BC0001A4332604A07DBD53268E36822F030020C
:100BD0001A4332600A07D5D53268236922F0C00271
:100BE0001A433260CA06CFD53268636922F4407274
:100BF0001A4332608A06C9D53268A36922F440627A
:100C00001A4332604A06C3D53268E36922F440527F
:100C10001A4332600A06BDD53268236A22F4404284
:100C20001A433260CA05B7D53268636A22F440328B
:100C30001A4332608A03B1D57269A36A22F00302B3
:100C40001A4372618A05ABD53268E36A22F4402206
:100C50001A4332604A050ED53268236B22F44012E3
:100C60001A43B3F5801F326005D156F87C2C42F44C
:100C7000801246F87C2C0A050ED53268636B22F48C
:100C800040021A43B3F5800F326005D156F87C2C30
:100C900042F4801246F87C2CCA040ED53268A36B4D
:100CA00022F040721A43B3F1807F326005D156F8CA
:100CB0007C2C42F4801246F87C2C8A040ED53268D3
:100CC000E36B22F040621A43B3F1006F326005D14A
:100CD00056F87C2C42F4801246F87C2C4A040ED53F
:100CE0003268236C22F040621A43B3F1006F326025
:100CF00005D156F87C2C42F4801246F87C2C0A046C
:100D00000ED53268636C22F040521A43B3F1805F13
:100D1000326005D156F87C2C42F4803246F87C2CA7
:100D2000CA030ED53268A36C22F040421A43B3F1D5
:100D3000804F326005D156F87C2C42F4803246F860
:100D40007C2C49030ED57169E26C21F440111143EA
:100D5000B2F5001F716105D156F87C1C41F4801179
:100D600046F87C1C02B0BDE8F08100BFB06810F40A
:100D7000407010D0216D88420BD0B068B16820F46B
:100D8000407041F48031B160B16821F48031B160CC
:100D9000B060C0070CD1B068216D20F440700843EA
:100DA000B0600020B8F1000F3FF5E3AEDBE600BF16
:100DB000FFF752FD054641F2883700BFB068800753
:100DC000E9D4FFF749FD401BB842F7D9C7E6000058
:100DD0002DE9F047002865D042F2000AC4F2020A69
:100DE0000446DAF800000D4600F00F0088420CD2ED
:100DF000DAF8000020F00F002843CAF80000DAF803
:100E0000000000F00F00A8424CD1216841F2080810
:100E1000C807C4F2020803D1880740F1D480B9E0C2
:100E2000606802283AD0032840D158F8082C920173
:100E300038D5D8F80420D8F8043042F20046C3F37D
:100E4000031302F00302D8F804700133C0F2F40671
:100E5000032A04BF43F20066C0F26E16B6FBF3F23B
:100E6000D8F80430C7F306277A43C3F34163022757
:100E700007EB4303B2FBF3F24BF20043C0F2C4436F
:100E80009A425DD9D8F8002012F0F00F4DD08907B2
:100E900056D5A168002953D147E000BF58F8081C77
:100EA000890307D40120BDE8F08700BF58F8081C6B
:100EB0004905F7D5D8F8001001F00C0104293FD0FE
:100EC000D8F8001001F00C01082939D0D8F800102A
:100ED00001F00C010C2933D1D8F80410D8F8042003
:100EE00042F20047C2F3031201F00301D8F80430C4
:100EF0000132C0F2F407032904BF43F20067C0F2D5
:100F00006E17B7FBF2F1D8F80420C3F30623594358
:100F1000C2F34162022303EB4202B1FBF2F14BF256
:100F20000042C0F2C44291420AD9D8F80010082207
:100F300062F307114FF00109C8F8001002E000BF8A
:100F40004FF00009D8F8001021F003010843C8F859
:100F50000000FFF781FC064641F28837D8F8000010
:100F6000616800F00C00B0EB810F07D0FFF774FC54
:100F7000801BB842F2D90320BDE8F08721688807BA
:100F800008D4B9F1000F1ED0D8F8000020F0F0000E
:100F900017E000BF480705D5D8F8000040F4E0602E
:100FA000C8F80000080706D5D8F80000072262F349
:100FB0000D20C8F80000D8F80000A26820F0F0006A
:100FC0001043C8F80000DAF8000000F00F00A84253
:100FD0001BD9DAF8000020F00F002843CAF80000FF
:100FE000FFF73AFC064641F2883700BFDAF8000006
:100FF00000F00F00A84207D0FFF72EFC801BB8427C
:10100000F4D90320BDE8F0872168480707D5D8F850
:101010000000E26820F4E0601043C8F80000080710
:1010200008D5D8F80000216920F4605040EAC100DA
:10103000C8F80000D8F8000042F20041C0F2F40104
:1010400000F00C00042808462DD0D8F8000000F06D
:101050000C00082843F20060C0F26E1023D0D8F8CC
:10106000002002F00C020C2A1CD1D8F80420D8F879
:10107000043002F00302C3F30313D8F80470013301
:10108000032A08BF0146B1FBF3F0D8F80410C7F3F8
:101090000627C1F341610222784302EB4101B0FB14
:1010A000F1F000E00020D8F8001042F6BE22C1F3B3
:1010B0000311C0F60002515C40F2140201F01F015E
:1010C00020FA01F140F20C00C2F200000068C2F206
:1010D00000021160BDE8F047FFF7E2BB40F21400E8
:1010E00041F20801C2F20000C4F20201006809687E
:1010F00042F6CE22C1F30221C0F60002515C01F09B
:101100001F01C8407047000040F2140041F208017E
:10111000C2F20000C4F202010068096842F6CE2261
:10112000C1F3C221C0F60002515C01F01F01C840AA
:101130007047000041F20C01C4F2020151F8040CA6
:1011400042F20042C0F2F40200F00C000428104603
:1011500008BF704751F8040C00F00C00082843F257
:101160000060C0F26E1025D051F8043C03F00C036F
:101170000C2B1CBF0020704780B5D1F800C00B6855
:101180000CF0030CC3F3031E0B680EF1010EBCF14F
:10119000030F08BF02460968B2FBFEF0C3F3062343
:1011A000C1F341610222584302EB4101B0FBF1F06F
:1011B000BDE8804070470000002804BF0120704750
:1011C0002DE9F04182B00446007841F20006C007E4
:1011D000C4F202061ED1207880073DD42078000793
:1011E00064D42078400700F187802078800600F1E1
:1011F000D980E569002D00F04482B06800F00C0051
:101200000C2840F03181012D40F09081012002B086
:10121000BDE8F081B06800F00C01F068082961D0E9
:10122000032281F00C0122EA00000844B0FA80F0A9
:10123000400957D16068B0F5803F07D0B0F5A02FC6
:1012400040F0E480306840F480203060306840F442
:1012500080303060E5E000BFB068F16800F00C005D
:10126000042871D001F0030180F00C0081F002012C
:101270000844B0FA80F0400966D1E168306800297E
:1012800000F0E08040F480703060FFF7E5FA05463A
:101290003068400500F10A81FFF7DEFA401B0228A2
:1012A000F6D9032002B0BDE8F08100BF6169D6F82D
:1012B0009400002900F0948040F00100C6F89400EA
:1012C000FFF7CAFA054600BFD6F8940080073FF53D
:1012D00088AFFFF7C1FA401B0228F5D9032002B0FE
:1012E000BDE8F081306880037FF575AF6068002845
:1012F0007FF471AF3EE000BFB06D5FEAC00808D474
:10130000B06D40F08050B065B06D00F0805001903D
:10131000019847F20007C4F200073868C0052DD4D1
:10132000386840F480703860FFF796FA054600BFD1
:101330003868C00522D4FFF78FFA401B0228F7D97E
:10134000032002B0BDE8F0813068400501D5E068B7
:1013500080B17068216920F0FE4040EA0160706051
:1013600040F20C00C2F200000068FFF799FA002872
:101370003FF434AF012002B0BDE8F081A06801283D
:1013800008D0052840F0B080D6F8900040F0040066
:10139000C6F89000D6F8900040F00100C6F8900022
:1013A000B0E000BFA169D6F89800002900F086805F
:1013B00040F00100C6F89800FFF74EFA054600BF5E
:1013C000D6F8980080073FF514AFFFF745FA401BA9
:1013D00002284FF00300F3D902B0BDE8F08100BF4E
:1013E00020F00100C6F89400FFF736FA054600BF6A
:1013F000D6F8940080077FF5F4AEFFF72DFA401B76
:101400000228F5D9032002B0BDE8F0813168002838
:1014100021F480313160316821F48021316000F0A5
:10142000BF80FFF719FA0546306880033FF5D3AE59
:10143000FFF712FA401B6428F6D9032002B0BDE87A
:10144000F08100BF20F480703060FFF705FA054698
:10145000306840057FF5C2AEFFF7FEF9401B022859
:101460004FF00300F4D9B7E7306820F080703060A7
:10147000FFF7F2F9022D05460CD100BF306880015C
:1014800040F1BA80FFF7E8F9401B02284FF0030053
:10149000F4D9A1E73068800140F1EC80FFF7DCF976
:1014A000401B02284FF00300F4D995E770682169CA
:1014B00020F0FE4040EA016070608FE620F00100FD
:1014C000C6F89800FFF7C8F9054600BFD6F898009F
:1014D00080077FF58EAEFFF7BFF9401B02284FF063
:1014E0000300F3D978E700BFD6F89010002821F068
:1014F0000101C6F89010D6F8901021F00401C6F84A
:1015000090105DD0FFF7A8F9054641F2883700BF7B
:10151000D6F89000800765D4FFF79EF9401BB842CB
:10152000F6D9032002B0BDE8F08100BFF068216A5F
:1015300000F003028A427FF41DAF626A6FF00F036E
:1015400000F0F00103EB021291427FF413AFA16AA5
:1015500000F4FE42B2EB012F7FF40CAFE16A00F021
:101560007842B2EBC16F7FF405AF226B0023CFF658
:10157000E07303EA025200F4C001A2F500129142A6
:101580007FF4F8AE616B4FF07E4202EA016100F039
:10159000C06001F17E4188427FF4ECAE71E000BF93
:1015A000FFF75AF9054600BF306880037FF513AE98
:1015B000FFF752F9401B64284FF00300F4D90BE702
:1015C000FFF74AF9054641F2883700BFD6F8900088
:1015D000800707D5FFF740F9401BB8424FF00300E2
:1015E000F4D9F9E6B8F1000F3FF5FFADB06D20F08A
:1015F0008050B065F9E500BFF06848F20C01C0F218
:101600009F1104F1200700EA010C8ECF6FF00F004C
:10161000D4E90C5400EB02100022CFF6E07241EA4C
:101620000C0102EA05520843A2F500124FF07E4574
:1016300040EA032005EA0465104305F17E4540EACF
:10164000C7602843F060306840F080703060F06818
:1016500040F08070F060FFF7FFF8044630688001CA
:101660000FD4FFF7F9F8001B02284FF00300F5D95B
:10167000B2E600BFF0684FF6FC71CFF6EE610840AD
:10168000F060002002B0BDE8F0810000411E0020A3
:10169000B0EB116F1CBF012070474EF21002CEF26A
:1016A000000251604EF62351CEF20001F0230B7080
:1016B000072190601160704770470000704700007C
:1016C000704700007047000070470000704700003E
:1016D00070470000002804BF0120704710B5044681
:1016E00090F83D0028B9002084F83C00204600F026
:1016F00023F8022084F83D002068211D00F014FC2E
:10170000012084F8480084F83E0084F83F0084F803
:10171000400084F8410084F8420084F8430084F8D3
:10172000440084F8450084F8460084F8470084F8B3
:101730003D00002010BD0000006844F20041C4F2EA
:101740000101884218BF704780B582B041F2600045
:10175000C4F202000168002241F400310160006817
:10176000002100F40030019001981920FFF7EAF8F9
:10177000192002B0BDE88040FFF7D2B890F83D10C4
:1017800001291BD1022180F83D10016842F6FF3289
:10179000C868C4F20102914240F00100C8600FDC49
:1017A00040F2FF70C4F20000814219DCB1F1804FB9
:1017B0002ED040F20040C4F2000027E00120704724
:1017C00043F6FF70C4F20100814215DC42F600408E
:1017D000C4F2010081421BD043F2004014E000BF7C
:1017E00040F60000C4F20000814211D040F60040F3
:1017F000C4F200000AE000BF45F20000C4F201009C
:10180000814205D044F20000C4F2010081420CD1B3
:1018100088680722C0F201020240062A4FF0000049
:10182000CDD0B2F5803F08BF7047086840F0010096
:10183000086000207047000070470000F0B581B0DC
:1018400004460068C5680669B10717D515F002019E
:1018500014D06FF0020101610121217780698007B6
:1018600004D02046FFF7E8FF06E000BF204600F066
:10187000CBF8204600F0CAF800202077700719D571
:1018800015F0040016D020686FF0040101610221F8
:101890002177806910F4407F04D02046FFF7CCFF09
:1018A00006E000BF204600F0AFF8204600F0AEF89A
:1018B00000202077300717D515F0080014D02068D5
:1018C0006FF00801016104212177C069800703D00E
:1018D0002046FFF7B1FF05E0204600F095F82046CE
:1018E00000F094F800202077F00619D515F01000CC
:1018F00016D020686FF01001016108212177C069BE
:1019000010F4407F04D02046FFF796FF06E000BFAA
:10191000204600F079F8204600F078F80020207783
:10192000F00718BF15F0010006D020686FF0010124
:101930000161204600F06CF816F4025F05F08007A4
:1019400018BF002F02D1F00509D410E020686FF411
:10195000025101612046FFF7B1FEF00507D537B10E
:1019600020686FF4807101612046FFF7A5FE7006C4
:1019700009D515F0400006D020686FF040010161E4
:10198000204600F055F8B00609D515F0200006D025
:1019900020686FF0200101612046FFF791FEF00200
:1019A00009D515F4801006D020686FF4801101610C
:1019B0002046FFF789FEB00209D515F4001006D0C5
:1019C00020686FF4001101612046FFF77BFE700272
:1019D00009D515F4800006D020686FF480010161FC
:1019E0002046FFF773FE30020CD515F4000009D035
:1019F00021686FF4000220460A6101B0BDE8F040A2
:101A0000FFF766BE01B0F0BD7047000070470000F0
:101A100040F22411C2F20001884218BF704740F220
:101A20007800C2F2000081680131816070470000D7
:101A30007047000090F88410012904BF022070470D
:101A40002421C0F8881002681168136823F001038C
:101A5000136021F000530021416613602022C0F87A
:101A6000882080F8841008467047000090F8842091
:101A7000012A04BF02207047B0B52422C0F8882094
:101A80000268D0F864E0D2F800C01368BEF1000F1D
:101A900023F001031360936823F0606341EA0301BC
:101AA000916019D09368916842F6003E490FC0F6E4
:101AB000000E42F608351EF80140C0F60005695CCC
:101AC000C3F34263E400B4FBF1F11EF80340EB5CA6
:101AD000E500B5FBF3F301E001210123A0F86A1052
:101AE0002021A0F86830C2F800C0C0F8881000219A
:101AF00080F88410BDE8B0400846704790F8842014
:101B0000012A04BF02207047B0B52422C0F8882003
:101B10000268D0F864E0D2F800C01368BEF1000F8C
:101B200023F001031360936823F0604341EA03014B
:101B3000916019D09368916842F6003E490FC0F653
:101B4000000E42F608351EF80140C0F60005695C3B
:101B5000C3F34263E400B4FBF1F11EF80340EB5C15
:101B6000E500B5FBF3F301E001210123A0F86A10C1
:101B70002021A0F86830C2F800C0C0F88810002109
:101B800080F88410BDE8B0400846704710B5D0B169
:101B90000446D0F8880028B9002084F88400204644
:101BA00000F026F82420C4F888002068A16A0268A2
:101BB00022F00102026011B1204600F05DFA2046D9
:101BC00000F088FB10B1012010BD00BF21684868FB
:101BD00020F490404860886820F02A0088600868F7
:101BE00040F0010220460A60BDE8104000F0BABA99
:101BF00010B59AB00446684604305021FEF7EAFB5F
:101C0000206848F20001C4F20001884202D01AB0F4
:101C100010BD00BF202000906846FEF76DFF002831
:101C200018BFFEF757FC41F24C00C4F202000169F4
:101C300041F001010161016901F00101159115995E
:101C4000016841F0010101600068022100F001001B
:101C5000159015980C20169100211590CDE91711BB
:101C6000199015A94FF09040FEF712FD1AB010BD63
:101C7000FEE70000B0B540F27805C2F20005287812
:101C800010B340F60004C4F60004204604210122EB
:101C9000FEF7DCFD40F22410C2F200000068406A4A
:101CA000D5E9021200EB014040F20001C2F200014E
:101CB0004968801A884238BFB0BD204604210022FE
:101CC0000024FEF7C3FD2C70B0BD00002DE9F04FDD
:101CD00087B0002441F24C00CDE90544C4F2020073
:101CE000016840F2004841F0040101600168C4F657
:101CF000000801F0040101910199016808F580666E
:101D000041F0200101600168002201F020010191F1
:101D1000019901684FF0070B41F001010160016872
:101D200001F0010101910199016841F00201016096
:101D3000016801F0020101910199016841F0080177
:101D400001600068072100F008000190019830460A
:101D5000FEF77CFD4FF090404FF4D46101224FF02C
:101D60000109FEF773FD40464FF470610122FEF752
:101D70006DFD08F50065284604210122FEF766FD89
:101D800042F2E80002AF02904FF4881A304639461A
:101D9000CDE903A4FEF77CFC30463946CDE902B913
:101DA000CDE90449FEF774FC4FF4D460CDE9020993
:101DB0004FF090403946CDE90444FEF769FC4FF4FA
:101DC0007060CDE9020940463946CDE90444FEF78A
:101DD0005FFC0420CDE9020928463946CDE90444D8
:101DE000FEF756FC1020CDE9020A4046394604941D
:101DF000FEF74EFC092000210022FEF7A3FD09207A
:101E0000FEF78EFD0A2000210022FEF79BFD0A202E
:101E1000FEF786FD172000210022FEF793FD172014
:101E2000FEF77EFD282000210022FEF78BFD2820F2
:101E3000FEF776FD07B0BDE8F08F000080B540F2F8
:101E4000900048F20001C2F20000C4F20001002339
:101E50004FF00C0C4FF4E13280E80E00C0E9033380
:101E6000C0E905C3C0E908338362FFF78FFE00288D
:101E700018BFFEF72FFB40F29000C2F200000021D5
:101E8000FFF73CFE002818BFFEF724FB40F290004D
:101E9000C2F200000021FFF7E9FD002818BFFEF79D
:101EA00019FB40F29000C2F20000FFF7C3FD0028CA
:101EB00008BF80BDBDE88040FEF70CBB80B540F296
:101EC000241044F20041C2F20000C4F201010023D8
:101ED000A9224FF6FF7C80E80E10C0E9043383612D
:101EE000FFF7F8FB002808BF80BDBDE88040FEF783
:101EF000F1BA0000FEE70000FEE7000070470000B6
:101F000070470000FEF7AEBC4EF68850CEF20000DF
:101F1000016841F4700101607047000040F2241034
:101F2000C2F20000FFF78ABC40F6FF330268C4F239
:101F3000000343F2FF3C9842C4F2010C0ADD604505
:101F40002EDC40F60043C4F20003984234D042F63F
:101F500000432DE0B0F1804F2ED040F20043C4F298
:101F60000003984228D040F60003C4F200039842D0
:101F700022D0604526DC40F2FF73C4F20003984291
:101F800036DD40F60003C4F20003984244D040F628
:101F90000043C4F2000398423ED042F6004337E0CB
:101FA00045F20003C4F20103984205D043F2004316
:101FB000C4F201039842DCD14B6822F070021A434C
:101FC0006045D8DD44F2FF33C4F20103984217DDC7
:101FD00044F20043C4F2010398421DD045F20003CD
:101FE000C4F20103984217D044F6000310E000BF8A
:101FF000B0F1804F10D040F20043C4F2000309E07A
:1020000043F20043C4F20103984205D044F20003B6
:10201000C4F20103984203D1CB6822F440721A4300
:1020200080B54B6922F0800E8A6843EA0E03D1F82E
:1020300000C00360C262A0F18042A2F5963283051F
:1020400043EA9222092AC0F828C0BDE8804008D897
:10205000012303FA02F240F2E5231A421CBF096988
:102060000163012141610169C90708BF7047016926
:1020700021F0010101617047816A0A070ED4CA0785
:1020800017D18A0720D44A0729D4CA0632D48A062F
:102090003BD480B54A0644D458E000BF0268D0F86B
:1020A00038C0536823F4004343EA0C035360CA0763
:1020B000E7D00268D0F82CC0536823F4003343EA19
:1020C0000C0353608A07DED50268D0F830C053682D
:1020D00023F4803343EA0C0353604A07D5D50268E2
:1020E000D0F834C0536823F4802343EA0C035360D0
:1020F000CA06CCD50268D0F83CC0936823F480535C
:1021000043EA0C0393608A06C3D50268D0F840C046
:10211000936823F4005343EA0C03936080B54A06A6
:1021200014D50268D0F844C05368BCF5801F23F46E
:10213000801343EA0C03536008D1D2F804C0D0F8EE
:1021400048E02CF4C00343EA0E035360090658BF6D
:1021500080BD0168C06C4A6822F4002210434860C8
:1021600080BD0000B0B582B004460020C4F89000E5
:10217000FEF772FB216805460A68120737D56FF033
:102180007E4C20464FF4001100222B46CDF800C0B3
:1021900000F0FAF950B300BF206850E8000F216842
:1021A00020F0800041E80002DAB1206850E8000F1A
:1021B000216820F0800041E8000292B1206850E8D8
:1021C000000F216820F0800041E800024AB1206839
:1021D00050E8000F216820F0800041E80002002A4A
:1021E000DAD12020C4F8880060E000BF21680868C8
:1021F000400761D56FF07E4C20464FF480010022ED
:102200002B46CDF800C000F0BFF9002854D000BF25
:10221000206850E8000F216820F4907041E8000227
:10222000E2B1206850E8000F216820F4907041E886
:1022300000029AB1206850E8000F216820F49070E5
:1022400041E8000252B1206850E8000F216820F4F4
:10225000907041E80002002ADAD100BF206850E8FF
:10226000020F216820F0010041E80202DAB1206883
:1022700050E8020F216820F0010041E8020292B10B
:10228000206850E8020F216820F0010041E80202B6
:102290004AB1206850E8020F216820F0010041E8AF
:1022A0000202002ADAD12020C4F88C000320002189
:1022B00084F8841002B0B0BD2020C4F88800C4F8AF
:1022C0008C000020E0662067002184F8841002B0B2
:1022D000B0BD000070B5054605F108041ECC0068CD
:1022E000194341EA0403EE69046846F6F311CCF69B
:1022F000FF712140194331430160416848F2000CED
:1023000021F4405111434160AA69C4F2000C6045B8
:102310001CBF296A0A4381684FF2FF43C1F2FF13D1
:10232000194011438160C16AD5F824E021F00F0102
:1023300041EA0E01C16244F6FF71C4F20001884215
:102340004FF0100318DC44F20041C4F2000188424F
:1023500028D044F60001C4F2000188422AD044F695
:102360000041C4F20001884242D141F28801C4F226
:10237000020109688B0933E045F20001C4F2000153
:1023800088421FD0604525D043F60001C4F2010108
:1023900088422DD141F28801C4F202010B6876A275
:1023A00022E000BF41F28801C4F2020109688B08F3
:1023B00016E000BF41F28801C4F2020109680B096E
:1023C0000EE000BF41F28801C4F2020109680B0A65
:1023D00006E000BF41F28801C4F2020109688B0ADD
:1023E00042F6F022C0F6000203F0030152F8213059
:1023F000604542F20040C0F2F40015D0B6F5004F3F
:1024000022D1082B4FF0010100F2AD80DFE803F08C
:10241000065C6AAB60ABABAB680000BFFEF75EFE6C
:10242000002840F059809AE0082B4FF0010100F29B
:102430009A80DFE803F0059825981B989898230068
:10244000FEF74CFEB0B98AE0082B4FF0010100F214
:102450008A80DFE803F005636F88678888886D00ED
:10246000FEF73CFE002860D179E000BFFEF762FE77
:10247000002874D0D5F824E002E000BF4FF40040FB
:1024800042F6D621C0F6000131F81E106A68B0FB92
:10249000F1F002EB420188424FF0010163D31303D4
:1024A000984260D8010E000210EB520041F1000189
:1024B0000023FDF717FF4FF60052A0F54071C0F260
:1024C0000F02914249D34DE0FEF71EFE20B946E0CF
:1024D000FEF730FE002842D0D5F824E002E000BF2D
:1024E0004FF4004042F6D621C0F6000131F81E102C
:1024F0006A68B0FBF1F0510801EB4000B0FBF2F06C
:102500004FF6EF72A0F1100191422BD84FF6F07107
:102510000140C0F3420008441FE000BFFEF7F4FD95
:1025200018B91CE0FEF706FEC8B1D5F824E001E0BA
:102530004FF4004042F6D621C0F6000131F81E10DB
:102540004FF6EF72B0FBF1F0696800EB5100B0FBA1
:10255000F1F0A0F11001914204D82968C86000216F
:1025600001E000BF01214FF00110A86600220846DB
:102570006A67AA6770BD00BF010000000400000088
:1025800002000000080000002DE9F04180460068CC
:102590001546C2690E461140891BB1FA81F14909FD
:1025A000A94223D1069C2CB3611C29D1C1693140B9
:1025B000891BB1FA81F14909A94217D1C16931409A
:1025C000891BB1FA81F14909A9420FD1C169314092
:1025D000891BB1FA81F14909A94207D1C16931408A
:1025E000891BB1FA81F14909A942DFD00020BDE879
:1025F000F08100BFFEF730F90320BDE8F08100BF95
:102600001F4607E0C0693040801BB0FA80F04009E7
:10261000A842EBD1FEF720F9C01BA04200F2AE8029
:10262000D8F8000001684907ECD5402EEAD0802E8A
:10263000E8D0C169090700F1A580C1690905E1D5A4
:102640004FF400610162D8F8000050E8000FD8F89C
:10265000001020F4907041E800020AB3D8F800009E
:1026600050E8000FD8F8001020F4907041E8000204
:10267000B2B1D8F8000050E8000FD8F8001020F4EC
:10268000907041E800025AB1D8F8000050E8000FFD
:10269000D8F8001020F4907041E80002002AD2D14E
:1026A0004FF6FE70CEF6FF70D8F8001051E8021F0A
:1026B000D8F80020014042E80213F3B1D8F8001026
:1026C00051E8021FD8F80020014042E80213A3B1EC
:1026D000D8F8001051E8021FD8F80020014042E865
:1026E000021353B1D8F8001051E8021FD8F80020A7
:1026F000014042E80213002BD6D1D8F86C00012823
:102700002CD1D8F8000050E8000FD8F8001020F0C5
:10271000100041E800020AB3D8F8000050E8000FAA
:10272000D8F8001020F0100041E80002B2B1D8F84B
:10273000000050E8000FD8F8001020F0100041E829
:1027400000025AB1D8F8000050E8000FD8F8001085
:1027500020F0100041E80002002AD2D12020002100
:10276000C8F88C00C8F86C10C8F87410C8F890004D
:10277000032088F88410BDE8F08100BF0320BDE885
:10278000F08100BF08210162D8F8000050E8000F76
:10279000D8F8001020F4907041E800020AB3D8F88D
:1027A000000050E8000FD8F8001020F4907041E8C5
:1027B0000002B2B1D8F8000050E8000FD8F80010BD
:1027C00020F4907041E800025AB1D8F8000050E8B7
:1027D000000FD8F8001020F4907041E80002002AA1
:1027E000D2D14FF6FE70CEF6FF70D8F8001051E847
:1027F000021FD8F80020014042E80213F3B1D8F8D4
:10280000001051E8021FD8F80020014042E80213EE
:10281000A3B1D8F8001051E8021FD8F800200140F9
:1028200042E8021353B1D8F8001051E8021FD8F85B
:102830000020014042E80213002BD6D1D8F86C00EA
:1028400001282CD1D8F8000050E8000FD8F800106B
:1028500020F0100041E800020AB3D8F8000050E868
:10286000000FD8F8001020F0100041E80002B2B1CB
:10287000D8F8000050E8000FD8F8001020F0100041
:1028800041E800025AB1D8F8000050E8000FD8F82B
:10289000001020F0100041E80002002AD2D12020D0
:1028A000C8F88C0000200821C8F86C00C8F8740033
:1028B000C8F8901088F884000120BDE8F08100007D
:1028C000FEE700002DE9F04140F22415C2F20005B8
:1028D000286840F27804C2F20004416AA268D4E990
:1028E000040301EB0241CF1A40F200068742C2F214
:1028F000000611D3A17879B93078012180F0010266
:1029000040F60000C4F6000032704FF00108FDF7F9
:102910009DFF206984F80280B1680844874238BF6F
:10292000BDE8F0817078022180F0010240F60000DD
:10293000C4F600007270FDF789FF2868406AD4E988
:10294000011200EB024060610020A070481C606032
:10295000BDE8F08140F27801C2F2000108617047E1
:1029600094B0FDF78DFF00240020CDE90B44CDE9A4
:102970000944CDE90744FEF721F84FF4807109912D
:1029800040210A91042102200F9155210690CDE9A2
:102990000D00CDE91010CDE9120006A8FEF70CFCE1
:1029A00020B1EFF3108072B6FEE700BF0F20019058
:1029B0000320CDE9020401A80421CDE90444FEF777
:1029C00007FA28B1EFF3108072B600BFFEE700BF30
:1029D000FFF77CF9FFF732FAFFF770FA40F22410A4
:1029E000C2F20000FEF7CAFE322032216422FFF755
:1029F000B1FF40F2790540F6000440F27C0740F256
:102A0000780940F2840BC2F200050020C4F60004ED
:102A1000C2F2000741F61056C2F200094FF0010A57
:102A2000C2F2000B4FF00008287000BF20464FF4A0
:102A30000051FDF7FDFE012812D14FF090404FF4F8
:102A40000071FDF7FBFE5FEAC8700CD1FFF73AFF9B
:102A5000FFF710F94FF001083868B04208D2E5E7F7
:102A60005FEAC870F2D14FF000083868B042DDD399
:102A700028780028DAD1002089F800A0386000F01A
:102A800003F8CBF80000D1E740F22410C2F20000B6
:102A9000006840F27801C2F20001406A896800EBE8
:102AA00001407047F1EE100A4FF6FF71C0F2C031DD
:102AB00020EA010040F04070E1EE100A704700008B
:102AC00000000000000001020304060708090000DE
:102AD00000000102030401000200040006000800D7
:102AE0000A000C00100020004000800000010000DF
:102AF00000000000040000000200000008000000C8
:102B0000010101030701000008040204080101019A
:102B1000302B000800000020180000003C020008D4
:102B2000482B000818000020600700005C02000825
:102B30000101C03A640000003200000010000000F3
:082B4000010000000024F40074
:04000005080001D915
:00000001FF
